:100000000C9447050C948B050C948B050C948B0574
:100010000C948B050C948B050C948B050C948B0520
:100020000C948B050C948B050C94510D0C94230EA1
:100030000C940D1D0C948B050C948B050C948B0566
:100040000C948B050C948B050C948B050C948B05F0
:100050000C948B050C94801D0C948B050C948B05D3
:100060000C948B050C948B050C948B050C948B05D0
:100070000C948B050C948B050C948B050C948B05C0
:100080000C948B050C948B050C948B050C948B05B0
:100090000C948B050C948B050C948B050C948B05A0
:1000A0000C948B050C948B050C948B05880EAA0E72
:1000B000950FAA0E950FEC0E0F0F950F640F770F8B
:1000C000A412A412D212D2122E136A136D156D153A
:1000D00082136D157914791447156D156D155B151F
:1000E0000A00690025640052005000141A082B15FC
:1000F00018171C12132F0C3080314C1E1F20352175
:1001000024222326272D252E802A49807B7A788059
:1001100080802C7E807C807F51504F801D1B790613
:10012000111905363738107D5280800416073909B9
:100130000D0A0B0F33340E808028808080808080F1
:1001400080808080808080808080808080808080AF
:10015000808080808080808080808080808080809F
:1001600080808080808080808080804B6579626F15
:100170006172642073746172742E0A0055534220B8
:10018000636F6E666967757265642E0A000D0A6991
:100190006E69740A005B445D005B435D002C03469E
:1001A0000043003600360030004300200041006C60
:1001B000007400200043006F006E00740072006F36
:1001C000006C006C006500720000000A0354004DD2
:1001D000004B002E0000000403090409028D0005F5
:1001E0000100A032090400000103010100092111EE
:1001F0000100012240000705810308000A090401EB
:10020000000103010200092111010001224D000734
:1002100005820308000A0904020001030000000926
:1002200021110100012236000705830308000A0995
:100230000403000203000000092111010001222231
:1002400000070584032000010705040320000109BD
:1002500004040001030000000921110100012239FA
:1002600000070585032000011201100100000008AD
:10027000EDFE0C6600010102000105010906A10165
:10028000050719E029E71500250195087501810288
:100290000508190129059505750191029501750358
:1002A00091010507190029F71500250195F8750139
:1002B0008102C00631FF0974A1010975150026FFEE
:1002C000009520750881020976150026FF0095200B
:1002D00075089102C005010980A1018502168100FF
:1002E00026B7001A81002AB700751095018100C059
:1002F000050C0901A1018503160100269C021A01C3
:10030000002A9C02751095018100C005010902A117
:10031000010901A10005091901290515002501950B
:1003200005750181029501750381010501093009F7
:10033000311581257F9502750881060938158125BB
:100340007F950175088106050C0A38021581257F05
:10035000950175088106C0C005010906A1010507C0
:1003600019E029E71500250195087501810295011D
:100370007508810105081901290595057501910286
:100380009501750391010507190029FF150026FF46
:1003900000950675088100C0636F6E73756D657298
:1003A0003A20253034580A0073797374656D3A2009
:1003B000253034580A000A002530325820006B6579
:1003C00079626F6172643A20004C45443A202530CE
:1003D00032580A00253032583A202530313662250D
:1003E000730A00722F632030313233343536373898
:1003F000394142434445460A0064656C5F6B657948
:100400005F6269743A2063616E27742064656C3A98
:1004100020253032580A006164645F6B65795F6241
:1004200069743A2063616E2774206164643A202500
:100430003032580A004F6E6573686F743A207469E1
:100440006D656F75740A00290A002575002F002557
:1004500075005D280025640020002564002000252B
:10046000640020002564007C0025303258006D6F48
:100470007573656B6579205B62746E7C782079207A
:100480007620685D287265702F61636C293A205B65
:10049000006D6B5F776865656C5F74696D655F742F
:1004A0006F5F6D6178203D2025640A006D6B5F777A
:1004B0006865656C5F6D61785F7370656564203D2C
:1004C0002025640A006D6B5F74696D655F746F5FF2
:1004D0006D6178203D2025640A006D6B5F6D617849
:1004E0005F7370656564203D2025640A006D6B5F55
:1004F000696E74657276616C203D2025640A006D1A
:100500006B5F64656C6179203D2025640A006D6B2A
:100510005F776865656C5F74696D655F746F5F6D4B
:100520006178203D2025640A006D6B5F7768656502
:100530006C5F6D61785F7370656564203D20256434
:100540000A006D6B5F74696D655F746F5F6D6178D4
:10055000203D2025640A006D6B5F6D61785F7370CC
:10056000656564203D2025640A006D6B5F696E74CB
:10057000657276616C203D2025640A006D6B5F64B6
:10058000656C6179203D2025640A000A002575000C
:10059000363A20776865656C5F74696D655F746F66
:1005A0005F6D61783A20000A00257500353A2077A2
:1005B0006865656C5F6D61785F73706565643A202E
:1005C000000A00257500343A2074696D655F746F08
:1005D0005F6D61783A20000A00257500333A206D7E
:1005E00061785F73706565643A20000A00257500C4
:1005F000323A20696E74657276616C286D73293A9F
:1006000020000A00257500313A2064656C61792864
:100610002A31306D73293A20000A092D2056616C69
:10062000756573202D0A004D3E004D25643E200067
:100630003F007365742064656661756C740A0043DD
:100640003E200077686572652064656C74613A20AD
:10065000637572736F723D25642C20776865656CD5
:100660003D25640A53656520687474703A2F2F65C0
:100670006E2E77696B6970656469612E6F72672F82
:1006800077696B692F4D6F7573655F6B6579730A59
:10069000000A092D204D6F7573656B6579202D0A51
:1006A0004553432F713A09717569740A313A0964E7
:1006B000656C6179282A31306D73290A323A0969EB
:1006C0006E74657276616C286D73290A333A096D10
:1006D00061785F73706565640A343A0974696D65A1
:1006E0005F746F5F6D61780A353A09776865656C8C
:1006F0005F6D61785F73706565640A363A09776883
:1007000065656C5F74696D655F746F5F6D61780AB4
:100710000A703A097072696E742076616C7565733F
:100720000A643A097365742064656661756C747354
:100730000A75703A092B310A646F776E3A092D31C8
:100740000A706775703A092B31300A7067646F77E9
:100750006E3A092D31300A0A7370656564203D20B8
:1007600064656C7461202A206D61785F73706565C3
:1007700064202A2028726570656174202F207469B6
:100780006D655F746F5F6D6178290A003F004D3EB3
:100790002000433E20004C25640A000A092D204316
:1007A0006F6E736F6C65202D0A4553432F713A09A4
:1007B000717569740A6D3A096D6F7573656B65794A
:1007C0000A000A092D204D61676963202D0A643AE9
:1007D0000964656275670A783A096465627567201D
:1007E0006D61747269780A6B3A0964656275672095
:1007F0006B6579626F6172640A6D3A09646562754E
:1008000067206D6F7573650A763A0976657273694C
:100810006F6E0A733A097374617475730A633A09E7
:10082000636F6E736F6C65206D6F64650A302D3475
:100830003A096C61796572302D34284631302D4685
:1008400034290A506175733A09626F6F746C6F6175
:100850006465720A6E3A094E4B524F0A003F004ED1
:100860004B524F3A206F66660A004E4B524F3A2069
:100870006F6E0A0074696D65725F72656164333210
:1008800028293A202530346C580A006B6579626F4C
:100890006172645F6E6B726F3A2025580A006B6557
:1008A00079626F6172645F69646C653A2025580AE9
:1008B000006B6579626F6172645F70726F746F63F1
:1008C0006F6C3A2025580A00686F73745F6B657906
:1008D000626F6172645F6C65647328293A202558E1
:1008E0000A000A092D20537461747573202D0A00C3
:1008F0004743433A20342E382E32204156522D4C55
:100900004942433A20312E382E30204156525F4121
:100910005243483A20617672350A004F5054494F8D
:100920004E533A204C554641204D4F5553454B456B
:10093000592045585452414B455920434F4E534F2F
:100940004C4520434F4D4D414E44204E4B524F207D
:100950004B45594D41505F53454354494F4E203408
:100960003039360A004255494C443A2063316139E6
:100970006438332D6469727479202830303A343504
:100980003A3131204A756C202031203230313729FC
:100990000A005649443A2030784645454428544D8B
:1009A0004B2E29205049443A20307836363043289F
:1009B00046433636304320416C7420436F6E747268
:1009C0006F6C6C657229205645523A203078303170
:1009D00030300A00444553433A20544D4B2E206B8F
:1009E0006579626F617264206669726D77617265A4
:1009F00020666F72204643363630430A000A092DBE
:100A00002056657273696F6E202D0A000A6D6F752E
:100A100073653A206F66660A000A6D6F7573653AF2
:100A2000206F6E0A000A6B6579626F6172643A200A
:100A30006F66660A000A6B6579626F6172643A20BC
:100A40006F6E0A000A6D61747269783A206F66668B
:100A50000A000A6D61747269783A206F6E0A000AA2
:100A600064656275673A206F6E0A000A6465627594
:100A7000673A206F66660A000A0A626F6F746C6FCD
:100A8000616465722E2E2E2000433E20000011244A
:100A90001FBECFEFDAE0DEBFCDBF04B603FE24C039
:100AA0008091A2029091A302A091A402B091A5020C
:100AB0008730904BA740B04BB9F41092A20210922D
:100AC000A3021092A4021092A50214BE84B7877FDD
:100AD00084BF88E10FB6F8948093600010926000A4
:100AE0000FBEE0E0F8E3099511E0A0E0B1E0EEED23
:100AF000FBE402C005900D92A833B107D9F712E0CC
:100B0000A8E3B1E001C01D92A23AB107E1F70E944B
:100B1000840A0C94ED250C940000FF93EF93E09170
:100B20003801F0913901309709F00995EF91FF9163
:100B30000895FC018591803011F0EFDFFBCF08951F
:100B4000FF27E0E230E247FF0CC0419597FF09C064
:100B5000EDE26095709580959095611D711D811DE8
:100B6000911D27FF02C0219530E350E2AA27660FAE
:100B7000771F881F991FAA1FA41710F0A41B639545
:100B80005A95A9F7AA3008F0A95FA05DAF93F39535
:100B9000611571058105910541F7ED3211F4EF936F
:100BA000F395F21718F43F93F395FBCF8F91B5DFD0
:100BB000FA95E1F70895E991F9918591803021F056
:100BC000853219F0AADFF9CF089520E0E894559115
:100BD0005532C1F3503311F4689455915A3348F4A7
:100BE000505390F3220F022E220F220F200D250FBB
:100BF000F4CF0EF4219589919991533619F3533717
:100C000029F1533559F1BC0188279927E8945C36BE
:100C100021F48991999168945591543639F446EFAD
:100C20007EF077FF0DC08FEF9FEF0AC055374AE087
:100C300039F0583540E121F0523642E009F008958C
:100C4000FF93EF937DDFEF91FF91B7CFFF93EF938A
:100C5000FC0181918030B9F360DFFBCFFF93EF930C
:100C600068DFF1CFDF93CF93CDB7DEB72596A3DF53
:100C7000CF91DF9108951F93CF93DF93EC01162F4F
:100C80009A8180918402992329F080FF09C089EE1E
:100C900090E004C080FF04C087EE90E00E949905B8
:100CA0008091840280FF0FC08D8182958F701F928A
:100CB0008F9384EE90E09F938F930E9432060F9063
:100CC0000F900F900F908D8180FF08C0809184025B
:100CD00080FF04C082EE90E00E949905809184021A
:100CE00080FF04C080EE90E00E949905123020F051
:100CF000143008F06AC038C09A818D81992399F028
:100D0000982F92959F7011F080FF5FC082E00E9443
:100D10004E12113009F059C082E090E0DF91CF917E
:100D20001F910C944D1A982F92959F7089F080FD19
:100D30000FC082E090E00E94FE1B0E94311C86E200
:100D40000E94B71186E20E94221282E090E030C039
:100D500082E00E9455121130C1F582E090E0DF91EF
:100D6000CF911F910C94681A9A818D81992361F01B
:100D7000982F92959F7011F080FF27C080E20E940B
:100D80004E12133011F5C8CF982F92959F70C1F075
:100D900080FD16C080E290E00E94FE1B0E94311C84
:100DA00087E20E94B71187E20E94221280E290E05F
:100DB0000E94041C0E94311C8D818F708D8305C0A0
:100DC00080E20E945512133041F2DF91CF911F91C2
:100DD000089561FF02C02D9808952D9A089584B159
:100DE0008F6184B93E98469A3F9A8AB1806F8AB9DA
:100DF0005F9A479884B1806684B985B1806685B969
:100E0000EAE4F1E01192119281E0EA35F807D1F7B6
:100E1000EAE3F1E01192119281E0EA34F807D1F7A8
:100E20008AE491E090935D0180935C018AE391E014
:100E300090935B0180935A010895AF92BF92DF9225
:100E4000EF92FF920F931F93CF93DF9380915A01FC
:100E500090915B0120915C0130915D0130935B01C9
:100E600020935A0190935D0180935C01C0E0D0E033
:100E700001E010E095B1907EC3FF02C020E101C007
:100E800028E08C2F8770892B822B85B9A8010C2E26
:100E900002C0440F551F0A94E2F75A01A094B0947F
:100EA00080E090E06BB16F7060689C0174E0220F8D
:100EB000331F7A95E1F7622B6BB9AAE0AA95F1F797
:100EC00000C09C01220F331FE0915A01F0915B0199
:100ED000E20FF31F6081718164237523672B09F092
:100EE000479AB5E3BA95F1F70000D6B45F98EAE007
:100EF000EA95F1F700C060915C0170915D017B01A2
:100F0000E20EF31ED701369B06C0ED91FC911197BE
:100F1000EA21FB2105C0ED91FC911197E42BF52B03
:100F2000ED93FC93E6B5ED2CF12CED1518F0E6B53C
:100F3000F0E004C0E6B5F0E0E150FF4FEE19FF0924
:100F4000369770F0E0915A01F0915B01E20FF31FC8
:100F50000190F081E02D260F371FD901ED93FC930E
:100F6000BAE1BA95F1F700C047985F9AEBE2F1E079
:100F70003197F1F700C0000001968830910509F023
:100F800091CFA0915C01B0915D01E0915A01F09187
:100F90005B0150962D913C9151978089918928173A
:100FA000390751F00E944B1D60935E0170935F0101
:100FB00080936001909361012196C031D10509F0C1
:100FC00059CF81E0DF91CF911F910F91FF90EF906A
:100FD000DF90BF90AF90089520915C0190915D01EA
:100FE000E22FF92FE80FF11DE80FF11D80819181AB
:100FF000089581FF02C02E9808952E9A0895809139
:10100000860108959FB7F894109265019FBF909153
:101010009902943009F058C09091E9009F70209196
:10102000EC0020FF02C020E801C020E0292B94E062
:101030009093E9009091EB0090FF43C09091EE00F7
:1010400097FF3FC090916201992321F09091E800B1
:1010500095FF37C01092620196E03091E80035FDAF
:1010600015C030919902343061F53091EB0035FDB7
:1010700028C0915021F481E08093620122C0EFE901
:10108000FFE03197F1F700C00000E7CF8093F10057
:101090008091E80085FD0AC08091E80080FFFCCFC8
:1010A0008091E8008E778093E80006C08FB7F894AF
:1010B00091E0909365018FBF2F702093E90080E04D
:1010C00008952F702093E9008FEF0895CF93DF9359
:1010D00000D01F92CDB7DEB720919902243019F5C8
:1010E00023E029839B838A832093E9008FEF9091EB
:1010F000E800815095FD06C095ED9A95F1F7000046
:101100008111F5CF8091E80085FF0DC040E050E0EF
:1011100063E070E0CE0101960E94440B8091E800EC
:101120008E778093E8000F900F900F90DF91CF9112
:101130000895CF93DF9300D01F92CDB7DEB72091F3
:101140009902243021F522E029839B838A8383E05E
:101150008093E9008FEF9091E800815095FD06C0E3
:1011600095ED9A95F1F700008111F5CF8091E80097
:1011700085FF0DC040E050E063E070E0CE010196D5
:101180000E94440B8091E8008E778093E8000F90D6
:101190000F900F90DF91CF91089520919902243004
:1011A000F1F422E02093E9002FEF3091E800215084
:1011B00035FD06C035ED3A95F1F700002111F5CF68
:1011C0002091E80025FF0BC040E050E065E070E0B2
:1011D0000E94440B8091E8008E778093E800089588
:1011E000CF93DF93EC0180919902843009F047C0DE
:1011F00080910A018823E1F080910B018823C1F0DE
:1012000085E08093E9008FEF9091E800815095FD93
:1012100006C09AE29A95F1F700C08111F5CF80914E
:10122000E80085FF2CC040E050E060E270E017C0AD
:1012300081E08093E9008FEF9091E800815095FD67
:1012400006C095ED9A95F1F700008111F5CF8091D8
:10125000E80085FF14C040E050E068E070E0CE0197
:101260000E94440B8091E8008E778093E80080E232
:10127000FE01A6E6B1E001900D928A95E1F7DF91BB
:10128000CF91089589E991E00E9499058091980293
:10129000811109C00E94D60C0E94330D8091E2009A
:1012A00084608093E200089585E991E00E949905A9
:1012B0001092980208950895809163018F5F809342
:1012C000630162E30E94B325911135C0109263015E
:1012D00080916501882379F180919902843049F5E4
:1012E0008091E9008F709091EC0090FF02C090E82F
:1012F00001C090E0982B84E08093E9008091EB009E
:1013000080FF14C08091EE0087FF10C08091E8003C
:1013100085FF03C01092F100F9CF8091E80080FFB3
:1013200005C08091E8008E778093E8009F709093CD
:10133000E90010926501089542E061EC81E00E94AD
:10134000500C42E061EC82E00E94500C42E061EC03
:1013500083E00E94500C42E261EC84E00E94500C59
:1013600042E261EC85E00C94500C80919B0283304A
:1013700009F455C030F4813071F0823009F48EC028
:1013800008958A3009F47AC08B3009F460C089303E
:1013900009F09CC020C080919A02813A09F096C061
:1013A0008091E800877F8093E80080919E02909171
:1013B0009F02892B21F060E080E090E003C060E2B2
:1013C00086E691E070E00E948D0B8091E8008B77BB
:1013D0008093E800089580919A02813209F076C0E6
:1013E00080919E0290919F02009719F0049709F056
:1013F0006DC08091E800877F8093E8008091E800CD
:1014000082FD05C0809199028111F8CF5FC0809163
:10141000F100809386018091E8008B7753C0809122
:101420009A02813A09F052C080919E0290919F02E7
:10143000892B09F04BC08091E800877F8093E800FA
:101440008091E80080FFFCCF80910A0136C0809136
:101450009A028132D9F580919E0290919F02892B48
:10146000A9F58091E800877F8093E8000E94850CB1
:1014700080919C0280930A010C948E1580919A02AF
:10148000813221F58091E800877F8093E8000E94F7
:10149000850C80919D0280938701089580919A0226
:1014A000813AA1F48091E800877F8093E8008091E1
:1014B000E80080FFFCCF809187018093F10080914C
:1014C000E8008E778093E8000C94850C08950895C9
:1014D000089580918601809364011092860180E0D6
:1014E0000E94F9070E943D110C948E150C94690A14
:1014F0000E94CE1C80919702882329F00E94F41C40
:1015000081110C942E0B089584B7877F84BF88E1E6
:101510000FB6F89480936000109260000FBE90E0C8
:1015200080E80FB6F89480936100909361000FBE3D
:1015300082E098E00E948A1C8DE891E00E94990563
:101540000E94670A0E946A100E94D60C0E94330D06
:101550008091E20084608093E20078948091990207
:101560008430E1F78CE791E00E9499050E946C10AD
:1015700080E091E00E94AD0F8BE691E00E9499051A
:101580000E94680A80919902853019F40E94780AB5
:10159000F9CF0E947010F6CF0E94091D809164015E
:1015A0008093860108950C94CC0A292F3327233089
:1015B0003105A9F06CF42130310509F442C0223024
:1015C000310509F043C08DE890E02BED31E042C0D9
:1015D00021323105C9F02232310519F137C099277E
:1015E0008130910541F08230910541F0892B71F5F0
:1015F000E7EDF1E005C0EBECF1E002C0EDE9F1E070
:10160000849190E09F0126C0653000F5E62FF0E060
:10161000EE0FFF1FED5DFE4F2081318189E090E0EC
:1016200019C0653098F4E62FF0E0DF01AA0FBB1F68
:10163000A75EBE4F2D913C91EC5EFE4F808190E005
:1016400009C082E190E028E632E004C080E090E04A
:1016500020E030E0FA0131832083089580E189BDE4
:1016600082E189BD09B400FEFDCF8091D8008F7D55
:101670008093D8008091E00082608093E0008091A8
:10168000E00081FDFCCF0895CF92DF92EF92FF92B0
:101690000F931F93CF93DF937C018B01EA010E948C
:1016A000A60C811131C0209731F088819981081BE7
:1016B000190BE80EF91EC12CD12C0115110519F1D9
:1016C0008091E80085FD14C08091E8008E778093BA
:1016D000E800209741F0888199818C0D9D1D9983A8
:1016E000888385E011C00E94A60C882331F30CC0CA
:1016F000F70181917F018093F10001501109FFEF03
:10170000CF1ADF0ADACF80E0DF91CF911F910F91DE
:10171000FF90EF90DF90CF9008952091A00230913C
:10172000A1022617370748F06115710539F4209199
:10173000E8002E772093E80001C0B901FC0120E009
:1017400061157105B9F180919902882309F440C0AF
:10175000853009F43FC08091E80083FD3DC0809151
:10176000E80082FF06C08091E80082FF26C080E08A
:1017700008958091E80080FFE3CF2091F3008091ED
:10178000F20090E0922B6115710551F088309105BF
:1017900038F421912093F100615071090196F3CF43
:1017A00021E0089709F020E08091E8008E7780938F
:1017B000E800C6CF2111C7CFD6CF809199028823E8
:1017C00039F0853039F08091E80083FFCCCF04C038
:1017D00082E0089583E0089581E008952091A002B9
:1017E0003091A1022617370748F06115710539F4C9
:1017F0002091E8002E772093E80001C0B901FC0198
:1018000020E061157105C1F180919902882309F4E6
:1018100041C0853009F440C08091E80083FD3EC09E
:101820008091E80082FF06C08091E80082FF27C017
:1018300080E008958091E80080FFE3CF2091F300DD
:101840008091F20090E0922B6115710559F088307B
:10185000910540F424912093F10031966150710973
:101860000196F2CF21E0089709F020E08091E8008E
:101870008E778093E800C5CF2111C6CFD5CF809158
:101880009902882339F0853039F08091E80083FF90
:10189000CBCF04C082E0089583E0089581E00895ED
:1018A000982F973058F59093E900981739F0709178
:1018B000EC002091ED005091F00003C0242F762F12
:1018C00050E021FF19C03091EB003E7F3093EB00D8
:1018D0003091ED003D7F3093ED003091EB003160B1
:1018E0003093EB007093EC002093ED005093F000E8
:1018F0002091EE0027FF07C09F5FD3CF8F708093AA
:10190000E90081E0089580E0089580919A0287FDC2
:1019100005C08091E80080FF0EC012C08091E800F1
:1019200082FD05C0809199028111F8CF08958091C0
:10193000E8008B7708C0809199028111EACF089561
:101940008091E8008E778093E80008958091E4000C
:101950009091E50045E62091EC0020FF21C0209108
:10196000E80020FD21C020919902222389F0253032
:1019700089F02091EB0025FD0FC02091E40030910B
:10198000E5002817390739F3415041F0C901E3CF89
:1019900082E0089583E0089581E0089584E0089549
:1019A0002091E80022FFDFCF80E008950E94440DDF
:1019B0000E944C0DE0EEF0E0808181608083E8EDD4
:1019C000F0E080818F77808319BCA7EDB0E08C9127
:1019D0008E7F8C9380818F7E8083109298020895F1
:1019E0000F931F93CF93DF930E94440D0E944C0DE1
:1019F000C8EDD0E088818F7788838881806888836C
:101A000088818F7D888319BC10929902109295026B
:101A1000109297021092960200EE10E0F801808179
:101A20008B7F808388818160888342E060E080E0F2
:101A30000E94500CE1EEF0E080818E7F8083E2EE28
:101A4000F0E0808181608083808188608083F801FC
:101A500080818E7F8083888180618883DF91CF91B0
:101A60001F910F910895E8EDF0E080818F7E8083D3
:101A7000E7EDF0E080818160808384E082BF81E0D7
:101A8000809398020C94F00CE8EDF0E080818E7F5A
:101A900080831092E20008951092DA001092E10023
:101AA00008951F920F920FB60F9211242F933F9318
:101AB0004F935F936F937F938F939F93AF93BF9356
:101AC000EF93FF938091E10082FF0BC08091E200D1
:101AD00082FF07C08091E1008B7F8093E1000E942C
:101AE0005C098091DA0080FF1FC08091D80080FFE0
:101AF0001BC08091DA008E7F8093DA008091D9003C
:101B000080FF0DC080E189BD82E189BD09B400FE7E
:101B1000FDCF81E0809399020E94420905C019BC63
:101B2000109299020E9454098091E10080FF19C02F
:101B30008091E20080FF15C08091E2008E7F80934B
:101B4000E2008091E20080618093E2008091D80001
:101B500080628093D80019BC85E0809399020E942E
:101B6000760A8091E10084FF30C08091E20084FF1A
:101B70002CC080E189BD82E189BD09B400FEFDCFA2
:101B80008091D8008F7D8093D8008091E1008F7E76
:101B90008093E1008091E2008F7E8093E20080914B
:101BA000E20081608093E20080919502882311F029
:101BB00084E007C08091E30087FF02C083E001C09A
:101BC00081E0809399020E94D30A8091E10083FF13
:101BD00029C08091E20083FF25C08091E100877FCA
:101BE0008093E10082E080939902109295028091A7
:101BF000E1008E7F8093E1008091E2008E7F8093F0
:101C0000E2008091E20080618093E20042E060E0C7
:101C100080E00E94500C8091F00088608093F0007A
:101C20000E945B09FF91EF91BF91AF919F918F91BE
:101C30007F916F915F914F913F912F910F900FBEC8
:101C40000F901F9018951F920F920FB60F921124AC
:101C50002F933F934F935F936F937F938F939F93B4
:101C6000AF93BF93CF93EF93FF93C091E900CF70F1
:101C70008091EC001092E9008091F000877F8093C2
:101C8000F00078940E945F0E1092E9008091F000BD
:101C900088608093F000C093E900FF91EF91CF91AD
:101CA000BF91AF919F918F917F916F915F914F9174
:101CB0003F912F910F900FBE0F901F9018951F937B
:101CC000CF93DF93CDB7DEB7AA970FB6F894DEBFF8
:101CD0000FBECDBFEAE9F2E08091F100819322E0EE
:101CE000E23AF207C9F70E94B5098091E80083FF44
:101CF0001CC120919A0230919B02832F90E08A3080
:101D0000910508F012C1FC01EA5AFF4F0C94D3254B
:101D1000203881F0223809F008C180919E028F702E
:101D20008093E9008091EB0085FB882780F9109271
:101D3000E90006C08091960290919702911182600D
:101D40009091E800977F9093E8008093F1001092C3
:101D5000F100C5C0822F8D7F09F0E7C0222319F062
:101D6000223061F0E2C080919C02813009F0DDC038
:101D7000333009F080E08093970228C080919C0264
:101D8000811124C020919E022F7009F4CEC02093AF
:101D9000E9008091EB0080FF19C08091EB003330A7
:101DA00011F4806211C080618093EB0081E090E0CB
:101DB000022E01C0880F0A94EAF78093EA0010927D
:101DC000EA008091EB0088608093EB001092E900BC
:101DD0008091E800877F86C02111A7C010919C02E6
:101DE0001F778091E3008078812B8093E3008091BE
:101DF000E800877F8093E8000E94850C8091E800CE
:101E000080FFFCCF8091E30080688093E300112382
:101E100011F083E001C082E08093990286C02058CF
:101E2000223008F082C080919C0290919D028C3DEE
:101E300023E0920779F583E08A838AE289834FB7AA
:101E4000F894DE01139620E03EE051E2E32FF0E04B
:101E500050935700E49120FF03C0E295EF703F5F7D
:101E6000EF708E2F90E0EA3010F0C79601C0C09658
:101E70008D939D932F5F243149F74FBF8091E800E8
:101E8000877F8093E8006AE270E0CE0101960E94AD
:101E90008D0B14C0AE014F5F5F4F60919E020E9498
:101EA000D50A009709F441C02091E800277F2093CC
:101EB000E800BC0189819A810E94EE0B8091E800C4
:101EC0008B778093E80031C0203879F58091E80065
:101ED000877F8093E800809195028093F100809144
:101EE000E8008E778093E8000E94850C1EC02111C7
:101EF0001CC090919C029230C0F48091E800877FD2
:101F00008093E800909395020E94850C8091950241
:101F1000811104C08091E30087FF02C084E001C00A
:101F200081E0809399020E949C098091E80083FFE0
:101F30000AC08091E800877F8093E8008091EB00E1
:101F400080628093EB00AA960FB6F894DEBF0FBEB6
:101F5000CDBFDF91CF911F91089590938D01809314
:101F60008C010895E0918C01F0918D01309721F062
:101F70000190F081E02D099480E00895FF920F9385
:101F80001F93CF93DF938C01E0918C01F0918D0131
:101F9000309799F10280F381E02D099580918402B8
:101FA00082FF2BC080FF04C08EEB93E00E94990556
:101FB000E80180E2F82E08EB13E08091840280FFB4
:101FC0000BC088811F928F931F930F930E9432063C
:101FD0000F900F900F900F90FA942196F110EDCF83
:101FE0008091840280FF09C086EB93E0DF91CF915E
:101FF0001F910F91FF900C949905DF91CF911F9144
:102000000F91FF900895E0918C01F0918D01309730
:1020100021F00480F581E02D09940895CF93DF939A
:10202000EC0180918A0190918B01C817D90709F1C1
:10203000D0938B01C0938A01E0918C01F0918D01C6
:102040003097B9F00680F781E02DCE010995809197
:10205000840282FF0EC080FF0CC0DF93CF9388EA1A
:1020600093E09F938F930E9432060F900F900F90F2
:102070000F90DF91CF910895CF93DF93EC01809182
:10208000880190918901C817D90709F1D093890176
:10209000C0938801E0918C01F0918D013097B9F0E7
:1020A0000084F185E02DCE0109958091840282FFA4
:1020B0000EC080FF0CC0DF93CF9388E993E09F931D
:1020C0008F930E9432060F900F900F900F90DF9128
:1020D000CF9108950C943E110E94361D0C94EF068A
:1020E0005F926F927F928F929F92AF92BF92CF92A8
:1020F000DF92EF92FF920F931F93CF93DF9300D065
:1021000000D01F92CDB7DEB70E941D070FE811E087
:10211000512C88248394912C852D0E94EC075C011E
:10212000F801C080D180C826D926C114D10439F461
:1021300053940E5F1F4FF8E05F12EECF3FC08091C7
:10214000840281FD0E943F11E12CF12C34010E2C00
:1021500002C0660C771C0A94E2F7C3018C219D2112
:10216000892B21F1E9825A8221E0C3018A219B2136
:10217000892B09F420E02B830E943F1D8160782F7A
:102180009D838C8349815A816B818D810E94751159
:1021900049815A816B817C818D810E94BC1CF80130
:1021A000208131812625372531832083FFEFEF1AE7
:1021B000FF0A80E1E816F10449F6BACF8FEF898370
:1021C0008A831B820E943F1D8160782F9D838C83B0
:1021D00049815A816B818D810E9475110E94BB1CBF
:1021E0000E94FE1F10918E010E94B20F181771F10C
:1021F0000E94B20F80938E019091840292FF0EC0D4
:1022000090FF0CC01F928F9389EC93E09F938F9364
:102210000E9432060F900F900F900F9080918E01C8
:102220000F900F900F900F900F90DF91CF911F9113
:102230000F91FF90EF90DF90CF90BF90AF909F9065
:102240008F907F906F905F900C94CC1C0F900F90AC
:102250000F900F900F90DF91CF911F910F91FF90F2
:10226000EF90DF90CF90BF90AF909F908F907F9036
:102270006F905F9008950C94F90708950895EF9278
:10228000FF920F931F93CF93DF9383EE93E00E940F
:102290009905C0E0D0E08DE2E82E81E0F82E04ED53
:1022A00013E08C2F0E94EC070E94A11CFF92EF927A
:1022B0009F938F93DF93CF931F930F930E943206C8
:1022C00021968DB79EB708960FB6F8949EBF0FBEA5
:1022D0008DBFC830D10529F7DF91CF911F910F91A4
:1022E000FF90EF90089508950895CF93DF93CDB7B1
:1022F000DEB72B970FB6F894DEBF0FBECDBF4F836E
:10230000588769877A878B878A859B85892B31F0E7
:102310005F3F11F080E003C04F3FE1F781E08111A2
:1023200007C04F81588569857A858B850E94BC1CC2
:10233000DE01119686E0FD0111928A95E9F785E0AC
:10234000FE01379601900D928A95E1F749815A81F5
:102350006B817C818D819E810E948C182B960FB69B
:10236000F894DEBF0FBECDBFDF91CF910895CF931C
:10237000C82F882309F464C08CEF8C0F813A20F0B9
:1023800080E58C0F8E3248F48C2F0E943F23811100
:1023900057C08C2F0E94451B0CC080E28C0F8830E8
:1023A00058F4C77081E001C0880FCA95EAF70E940F
:1023B000EB1BCF910C94311C8BE58C0F833078F4A0
:1023C000C53A29F0C63A31F482E890E005C081E8C8
:1023D00090E002C083E890E0CF910C940E1088E565
:1023E0008C0F853168F5C83A89F0C93A91F0CA3A3C
:1023F00099F0CB3AA1F0CC3AA9F0CD3AB1F0CE3A6F
:10240000B9F0CF3AC1F487EB90E017C082EE90E0CC
:1024100014C089EE90E011C08AEE90E00EC085EB0A
:1024200090E00BC086EB90E008C083EB90E005C025
:1024300084EB90E002C080E090E0CF910C943C10DF
:10244000CF910895882349F19CEF980F913A20F09D
:1024500090E5980F9E3218F40E94961B0DC090E2F2
:10246000980F983058F4877091E001C0990F8A95C1
:10247000EAF7892F0E94F11B0C94311C9BE5980F01
:10248000933020F480E090E00C940E10885A85314F
:1024900020F480E090E00C943C100895882321F013
:1024A0000E94EB1B0C94311C0895882321F00E949C
:1024B000F11B0C94311C0895CF92DF92EF92FF92A2
:1024C0000F931F93CF93DF93CDB7DEB728970FB647
:1024D000F894DEBF0FBECDBF8C0185E0F801DE01B0
:1024E000119601900D928A95E1F7F8014081518192
:1024F000F28083819481258122952F70009731F09D
:102500005F3F31F431E04F3F19F403C031E001C0C7
:1025100030E030FDE2C2782F9D838C836F2D8D815A
:102520002F830E94D91A9E8388870E94D81A0E94FE
:10253000E0194E81E42FE295EF70F0E0E05AFF4F92
:102540002F8168850C94D325842F807F142F1F70D2
:10255000882311F01295107FFF2059F0112309F400
:1025600071C2812F68870E94FE1B0E94311C688502
:1025700069C2862F0E942212112309F4AEC2812F54
:102580000E94041C28960FB6F894DEBF0FBECDBF84
:10259000DF91CF911F910F91FF90EF90DF90CF903F
:1025A0000C94311C842F807F942F9F70E92E8032F1
:1025B00019F0E29480EFE822662319F0613001F10E
:1025C00029C0FF20A9F08E2D222349F1213039F5B1
:1025D00028960FB6F894DEBF0FBECDBFDF91CF9126
:1025E0001F910F91FF90EF90DF90CF900C940E1CF5
:1025F000222319F0213009F470C20E94171C2CC04C
:10260000FF20E9F0263008F068C20E94E81B8E2106
:1026100029F022C0FF20F1F0211115C08E2D28963F
:102620000FB6F894DEBF0FBECDBFDF91CF911F91E3
:102630000F91FF90EF90DF90CF900C944E122530C9
:1026400008F04BC209C0F801858180FFFBC18F7083
:102650008583E4CF21110AC28E2D78C1242F2695BF
:102660002695237030E02115310521F02130310508
:10267000C9F033C2FF2021F0862F942F937002C03F
:1026800080E090E028960FB6F894DEBF0FBECDBF75
:10269000DF91CF911F910F91FF90EF90DF90CF903E
:1026A0000C940E10FF2021F0862F942F937002C0FF
:1026B00080E090E028960FB6F894DEBF0FBECDBF45
:1026C000DF91CF911F910F91FF90EF90DF90CF900E
:1026D0000C943C10862FFF2019F00E94841E02C02B
:1026E0000E94EC1E28960FB6F894DEBF0FBECDBF39
:1026F000DF91CF911F910F91FF90EF90DF90CF90DE
:102700000C94711F842F837009F076C0F110E5C11D
:10271000262F229526952770220F220F862F8F7045
:10272000C82ED12CE12CF12C022E04C0CC0CDD1CC7
:10273000EE1CFF1C0A94D2F764FF10C06FE070E03B
:1027400080E090E004C0660F771F881F991F2A95CC
:10275000D2F7609570958095909503C060E070E029
:10276000CB01242F269526952370422F50E042302E
:102770005105D1F04330510559F16C297D298E293D
:102780009F294130510541F128960FB6F894DEBFDC
:102790000FBECDBFDF91CF911F910F91FF90EF90B2
:1027A000DF90CF900C94051A6C297D298E299F29E2
:1027B00028960FB6F894DEBF0FBECDBFDF91CF9144
:1027C0001F910F91FF90EF90DF90CF900C941F1A04
:1027D0000E94051AC701B60128960FB6F894DEBF0D
:1027E0000FBECDBFDF91CF911F910F91FF90EF9062
:1027F000DF90CF900C94EB19FF2019F0842F81709B
:1028000001C08695882309F468C1262F2295269554
:102810002770220F220F862F8F70C82ED12CE12C0B
:10282000F12C022E04C0CC0CDD1CEE1CFF1C0A9403
:10283000D2F764FF10C06FE070E080E090E004C069
:10284000660F771F881F991F2A95D2F7609570959C
:102850008095909503C060E070E0CB01242F269511
:1028600026952370422F50E042305105D1F043307D
:10287000510559F16C297D298E299F294130510537
:1028800041F128960FB6F894DEBF0FBECDBFDF91A1
:10289000CF911F910F91FF90EF90DF90CF900C940C
:1028A000B41A6C297D298E299F2928960FB6F89491
:1028B000DEBF0FBECDBFDF91CF911F910F91FF9073
:1028C000EF90DF90CF900C94C61A0E94B41AC70103
:1028D000B60128960FB6F894DEBF0FBECDBFDF91CC
:1028E000CF911F910F91FF90EF90DF90CF900C94BC
:1028F000A21A603FD9F128F480E4860F803250F0AC
:102900009CC0623F09F461C008F44BC0633F09F406
:1029100070C093C0162F1071842F8F716887FF20AD
:1029200059F00E944D1A6885862F112319F082955F
:10293000807F75CE8F7073CE0E94681A6885862F4F
:10294000112319F08295807F01C08F7028960FB6F1
:10295000F894DEBF0FBECDBFDF91CF911F910F91D5
:10296000FF90EF90DF90CF900C945512FF20A9F0CC
:10297000253008F0B2C0842F8F7128960FB6F894D6
:10298000DEBF0FBECDBFDF91CF911F910F91FF90A2
:10299000EF90DF90CF900C94871A263008F09DC0FE
:1029A000EACFFF20A1F0842F8F7128960FB6F894FC
:1029B000DEBF0FBECDBFDF91CF911F910F91FF9072
:1029C000EF90DF90CF900C944D1AFF2061F3842F8D
:1029D0008F7128960FB6F894DEBF0FBECDBFDF9182
:1029E000CF911F910F91FF90EF90DF90CF900C94BB
:1029F000681AFF2091F0842F8F7128960FB6F894F3
:102A0000DEBF0FBECDBFDF91CF911F910F91FF9021
:102A1000EF90DF90CF900C943E1A28960FB6F89462
:102A2000DEBF0FBECDBFDF91CF911F910F91FF9001
:102A3000EF90DF90CF900C94391AFF20A1F0222361
:102A400009F4B1CF862F28960FB6F894DEBF0FBEDB
:102A5000CDBFDF91CF911F910F91FF90EF90DF904D
:102A6000CF900C94B711222309F4B1CF862F28966A
:102A70000FB6F894DEBF0FBECDBFDF91CF911F918F
:102A80000F91FF90EF90DF90CF900C9422124F7037
:102A9000C8010E94001E28960FB6F894DEBF0FBE34
:102AA000CDBFDF91CF911F910F91FF90EF90DF90FD
:102AB000CF900C9439194F70C80128960FB6F8942E
:102AC000DEBF0FBECDBFDF91CF911F910F91FF9061
:102AD000EF90DF90CF900C943B0628960FB6F894B9
:102AE000DEBF0FBECDBFDF91CF911F910F91FF9041
:102AF000EF90DF90CF9008950E940B1C0E94DA1B8C
:102B00000E94311C0E949F200E94711F80E090E073
:102B10000E940E1080E090E00C943C100E94FB1B81
:102B20000C947C15CF93DF9300D000D01F92CDB7CB
:102B3000DEB70E94D91A292F22952F7030E02C3051
:102B400031054CF42A303105C4F4225031092230C9
:102B5000310540F021C02C303105D1F02F30310546
:102B6000B9F01AC0853A28F48430C0F4823028F4D1
:102B700015C090E2980F983088F0883E30F4803E7F
:102B800068F48450813A40F409C0803F29F406C0BB
:102B900093FB882780F903C080E001C081E00F909B
:102BA0000F900F900F900F90DF91CF910895CF93DA
:102BB000DF9300D000D01F92CDB7DEB70F900F90FB
:102BC0000F900F900F90DF91CF910895CF93DF93E7
:102BD00000D000D000D0CDB7DEB726960FB6F8945F
:102BE000DEBF0FBECDBFDF91CF9108951F93CF936E
:102BF000DF93C0919F0116E08091A001C81799F062
:102C0000D0E01C9FF0011D9FF00D1124EF55FE4FE9
:102C10004081518162817381848195810E94E61592
:102C20002196C770E9CFDF91CF911F910895409110
:102C3000D1015091D2016091D3017091D401809162
:102C4000D5019091D6010C94E615CF938091D601D1
:102C500082958F7009F05FC08091D301882309F4B9
:102C60005AC020919F01A091A0016091D101709163
:102C7000D2018091D4019091D50131E06F3F09F0EC
:102C800030E0B32FC6E02A1709F445C0009721F0C1
:102C90007F3F21F44B2F03C041E001C040E030E012
:102CA00040FD35C0C29FF001C39FF00D1124EF55C8
:102CB000FE4F418174132BC04081641328C04281B0
:102CC000411125C0438154814817590710F44150E0
:102CD0005109481B590B483C5105C8F48091D60155
:102CE0008F7080618093D60186E0829FF001839F80
:102CF000F00D1124EA55FE4F80818F708061808332
:102D000081ED91E00E945C12CF910C94F6152F5F3B
:102D10003F4F2770B8CFCF910895BF92CF92DF92E7
:102D2000EF92FF920F931F93CF93DF93CDB7DEB750
:102D300061970FB6F894DEBF0FBECDBF8C0185E062
:102D4000F801DE011D9601900D928A95E1F7D801F8
:102D50004C9111965C9111971296CC901297139604
:102D6000ED90FC9014976091D1017091D201209167
:102D7000D4013091D5012115310531F07F3F31F477
:102D800081E06F3F19F403C081E001C080E0B82FFB
:102D9000B170BB2E80FD77C1D090D301DD2009F446
:102DA000FBC0E091D601E216F30638F0C701821BA2
:102DB000930B883C910548F0A0C0209530952E0DCE
:102DC0003F1D283C310508F098C08E2F807F09F008
:102DD00053C0751314C0641312C0DC2CC1100FC093
:102DE000EF70E061E093D6010E94171681ED91E04B
:102DF0000E945C128091D601F80185837CC1E114A8
:102E0000F10431F05F3F31F481E04F3F19F403C02A
:102E100081E001C080E080FD03C081E08C2501C01D
:102E200080E0F82FF170DF2E80FF1CC080919F01A1
:102E30002091A00136E0821709F436C190E0389F56
:102E4000F001399FF00D1124EF55FE4F61815613AB
:102E500006C06081461303C06281C61203C001969A
:102E60008770E9CFDC2CCC2009F445C18091D601D4
:102E700081608093D60158C0751308C0641306C0E2
:102E8000C11004C0D8011596EC93B3C04D875E877E
:102E9000CF867E2DF98AE88A6C2D89890E94921549
:102EA000882339F1DC2CCC2021F12091D601822F0E
:102EB00082958F7090E002970CF463C08091D101ED
:102EC0009091D20198878F831986FB86EA862C879A
:102ED000CE01079654C0751749F14D875E87CF869E
:102EE0007E2DF98AE88A6C2D89890E9492158111BC
:102EF0002FC0C8010E945C12A9C08E2F807F59F795
:102F00007E2DF98AE88A6C2D89890E94D71581ED7A
:102F100091E00E945C12E1EDF1E086E0DF011D929C
:102F20008A95E9F70E941716D12CE5C06413D5CF16
:102F3000C110D3CFD8011596EC93C8010E945C1242
:102F4000E1EDF1E086E0DF011D928A95E9F7D3C05B
:102F5000DC2CCC2071F22091D601822F82958F70CB
:102F600090E0029774F08091D1019091D2019A8300
:102F700089831B82FD82EC822E83CE0101960E9402
:102F80005C1286E0F801A1EDB1E001900D928A9506
:102F9000E1F70E94251674C0E216F30628F0F70147
:102FA000E21BF30B9F0104C0209530952E0D3F1DB1
:102FB000283C310508F056C0DC2CCC2009F499CF10
:102FC00075132CC064132AC08091D60180FD1DC0EA
:102FD000982F92959F70C9F0D80115968C931597EC
:102FE0009F3039F09F5F9295907F8F70892B159657
:102FF0008C93C8010E945C1286E0F801A1EDB1E05B
:1030000001900D928A95E1F73BC086E0F801A1EDB1
:10301000B1E001900D928A95E1F76DC04D875E8712
:10302000CF867E2DF98AE88A6C2D89890E949215B7
:10303000882379F086E0F801A1EDB1E001900D92CE
:103040008A95E1F70E9425160E941716DD24D39475
:1030500052C08091D60181608093D601C8010E9440
:103060005C1249C07E2DF98AE88A6C2D89890E94FC
:10307000D715E1EDF1E086E0DF011D928A95E9F7D1
:103080000E94171638C0CC2009F433CF4D875E87D5
:10309000CF867E2DF98AE88A6C2D89890E94921547
:1030A000882309F426CFC6CF7E2DF98AE88A6C2DB5
:1030B00089890E94D91A292F22952F7030E0223059
:1030C00031052CF49F7041F0811106C00CC02430F2
:1030D00031052CF49F7049F4805E883020F0C801DF
:1030E0000E945C12BD2CDB2C06C0D80115969C9169
:1030F000907F91F7F8CF8D2D61960FB6F894DEBFD3
:103100000FBECDBFDF91CF911F910F91FF90EF9038
:10311000DF90CF90BF9008951F93CF93DF93CDB7EB
:10312000DEB72C970FB6F894DEBF0FBECDBF4F832E
:10313000588769877A878B879C87CE0107960E947C
:103140008D168823C1F02F8138858A859B85892B30
:1031500031F03F3F11F080E003C02F3FE1F781E005
:10316000811147C04F81588569857A858B859C85FB
:103170000E94E6153EC086E0FE013796DE011196FC
:1031800001900D928A95E1F7FF81E8854A855B857C
:103190004115510531F0EF3F31F481E0FF3F19F463
:1031A00003C081E001C080E080FD23C02091A00128
:1031B00030E0C90101968770992760919F0170E006
:1031C00086179707F1F1F983EA835D834C8396E0D4
:1031D000929FD001939FB00D1124AF55BE4FFE01B9
:1031E000319601900D929A95E1F78093A0010E948B
:1031F000F61516E080919F019091A001891779F151
:10320000189FC00111248F559E4F0E948D16882350
:1032100031F1E0919F011E9FF0011124EF55FE4F07
:103220004081518162817381848195810E94E6157C
:1032300080919F0190E001968770992780939F016C
:10324000D9CF0E948E151092A00110929F01E1ED3E
:10325000F1E086E0DF011D928A95E9F7CACF2C964E
:103260000FB6F894DEBF0FBECDBFDF91CF911F9197
:103270000895DF92EF92FF920F931F93CF93DF9306
:103280009C01009709F48AC0E12CF12CDD24D39431
:10329000E9012196F9018491853709F462C058F457
:1032A000843708F04EC0843008F069C08130D1F016
:1032B000823071F173C0883709F45CC050F48637EE
:1032C00009F454C0873709F069C08E2D0E94F81B9D
:1032D00053C09CE7980F903708F060C08F770E942A
:1032E00022124FC089010E5F1F4FFE01C49180E280
:1032F0008C0F883048F4C7708D2D01C0880FCA9597
:10330000EAF70E94FE1B15C08C2F0E94B71113C054
:1033100089010E5F1F4FFE01C49180E28C0F88303F
:1033200060F4C7708D2D01C0880FCA95EAF70E941E
:10333000041C0E94311CE80124C08C2F0E94221220
:10334000FACF2E5F3F4FFE01C491CC2341F08FE9AD
:103350009FE00197F1F700C00000C150F6CFE901EE
:1033600010C0FE01F490E90122960BC00E94E81BF8
:10337000E82E07C00E94FB1B0E94311C02C00E9465
:10338000B7119F2D992341F0EFE9FFE03197F1F755
:1033900000C000009150F6CF9E017ACFDF91CF910F
:1033A0001F910F91FF90EF90DF9008956093570267
:1033B000709358028093590290935A020C94E90634
:1033C000089560935B0270935C0280935D0290931A
:1033D0005E020C94CB1C0F931F9300915B02109123
:1033E0005C0220915D0230915E02602B712B822B7A
:1033F000932B60935B0270935C0280935D029093C9
:103400005E021F910F910C94CB1C0F931F930091A0
:103410005B0210915C0220915D0230915E0260239C
:1034200071238223932360935B0270935C028093E9
:103430005D0290935E021F910F910C94CB1C0F9331
:103440001F9300915B0210915C0220915D0230910C
:103450005E02602771278227932760935B02709337
:103460005C0280935D0290935E021F910F910C9419
:10347000CB1C60E070E0CB010C94D61941E050E029
:1034800060E070E004C0440F551F661F771F8A95E7
:10349000D2F7CB01BA010C94D61941E050E060E0BC
:1034A00070E004C0440F551F661F771F8A95D2F73E
:1034B0008091570290915802A0915902B0915A02FE
:1034C000482B592B6A2B7B2BCB01BA010C94D619B4
:1034D00041E050E060E070E004C0440F551F661FFB
:1034E000771F8A95D2F74095509560957095809199
:1034F000570290915802A0915902B0915A02482364
:1035000059236A237B23CB01BA010C94D61941E0DD
:1035100050E060E070E004C0440F551F661F771F45
:103520008A95D2F78091570290915802A091590242
:10353000B0915A02482759276A277B27CB01BA0145
:103540000C94D6190F931F930091570210915802B3
:103550002091590230915A02602B712B822B932BB0
:103560001F910F910C94D6190F931F93009157023E
:10357000109158022091590230915A026023712310
:10358000822393231F910F910C94D6190F931F93AD
:1035900000915702109158022091590230915A021D
:1035A00060277127822793271F910F910C94D619BA
:1035B00008959F92AF92BF92CF92DF92EF92FF92C7
:1035C0000F931F93CF93DF9300D000D01F92CDB7FE
:1035D000DEB75A016623C1F1C0905B02D0905C0255
:1035E000E0905D02F0905E02809157029091580247
:1035F000A0915902B0915A02C82AD92AEA2AFB2A74
:103600000FE110E0D701C601002E04C0B695A795C2
:10361000979587950A94D2F780FD05C0015011094E
:1036200088F7912C07C0902EB501802F0E94D61DDF
:103630000197A1F380E1B89EF0011124EA0DF11D7C
:10364000E952FE4F908209C080E1B89EF00111243A
:10365000E40FF11DE952FE4F9080A982BA82698180
:103660007A81892D0E94D61D0F900F900F900F9098
:103670000F90DF91CF911F910F91FF90EF90DF900E
:10368000CF90BF90AF909F90089590910A01992399
:1036900061F190910B01992341F1982F96959695A0
:1036A00096959F3188F4E0910C01F0910D01E90F9E
:1036B000F11D877021E030E001C0220F8A95EAF702
:1036C0008181822B818308959091840290FF2DC087
:1036D0001F928F9387E194E09F938F930E9432060D
:1036E0000F900F900F900F90089540910C01509102
:1036F0000D0120E030E09FEFFA01E20FF31F62813D
:10370000681799F09F3F19F4611101C0922F2F5F44
:103710003F4F2E31310581F79F3F39F0FA01E90F14
:10372000F11D97FDFA9582830895089590910A01FD
:10373000992369F190910B01992349F1982F96955E
:10374000969596959F3190F4E0910C01F0910D01C2
:10375000E90FF11D877021E030E001C0220F8A954A
:10376000EAF720958181282321830895909184028E
:1037700090FF1FC01F928F9389EF93E09F938F93C9
:103780000E9432060F900F900F900F900895409175
:103790000C0150910D0120E030E0FA01E20FF31F1F
:1037A0009281981301C012822F5F3F4F2E31310555
:1037B000A1F7089581E090E0E0910C01F0910D01F6
:1037C000E80FF91F1082019680329105A9F708953C
:1037D00080918302089590918302982B90938302A5
:1037E0000895809590918302982390938302089581
:1037F000809383020895109283020895909182022B
:10380000982B90938202089580959091820298233C
:10381000909382020895109282020895809361022B
:103820000E943F1D9093600280935F020895109262
:1038300061021092600210925F02089540910C01A3
:1038400050910D0120E030E080E0FA01E20FF31F1B
:10385000918191118F5F2F5F3F4F2F313105A9F774
:103860000895E0910C01F0910D0180918302808315
:10387000E0910C01F0910D01808190918202892BE1
:10388000808380916102882309F43EC00E943F1D1D
:1038900020915F02309160028217930760F00E94CE
:1038A0003F1D20915F0230916002821B930B8C328E
:1038B000914070F41BC00E943F1D20915F02309127
:1038C000600220953095280F391F2C32314070F05E
:1038D0008091840280FF08C085E394E09F938F93DA
:1038E0000E9432060F900F900E94171CE0910C016D
:1038F000F0910D01808190916102892B80830E945B
:103900001E1C81110E94171C80910C0190910D01C9
:103910000C94BE0F909339018093380108958295DD
:10392000982F9C7C96959695837344E0849F900194
:103930001124922B892F8A7A86959575990F892B58
:1039400008951F93CF93DF931F92CDB7DEB799836E
:103950000E948F1C182F9981892F0E948F1C212F64
:1039600030E0322F2227A901482BCA010F90DF91A6
:10397000CF911F9108950895CF93DF9300D000D089
:103980001F92CDB7DEB70F900F900F900F900F9052
:10399000DF91CF91089508950C943B118091990285
:1039A000843009F11092850220E488E190E00FB69E
:1039B000F894A895809360000FBE2093600083B7B1
:1039C000817F846083BF83B7816083BF789488954B
:1039D00083B78E7F83BF88E10FB6F8948093600031
:1039E000109260000FBE0895CF930E9473110E9441
:1039F0001D070E947411C0E08C2F0E94EC07892BD8
:103A000029F4CF5FC830C1F780E001C081E0CF91D9
:103A100008950E943D110C948E151F920F920FB6BF
:103A20000F9211248F939F93AF93BF938091850240
:103A3000811113C08091860290918702A091880223
:103A4000B09189024196A11DB11D80938602909389
:103A50008702A0938802B0938902BF91AF919F9192
:103A60008F910F900FBE0F901F90189582E084BD2C
:103A700093E095BD9AEF97BD80936E0008952FB7A0
:103A8000F8948091860290918702A0918802B0916B
:103A900089022FBF08952FB7F89460918602709124
:103AA000870280918802909189022FBF0895CF925A
:103AB000DF92EF92FF920F931F932FB7F8944091EC
:103AC00086025091870260918802709189022FBF0F
:103AD0006A017B01EE24FF248C0120E030E0C01657
:103AE000D106E206F30610F441505109481B590B68
:103AF000CA011F910F91FF90EF90DF90CF90089532
:103B00001F920F920FB60F9211248F939F93AF9332
:103B1000BF938091860290918702A0918802B09114
:103B200089020196A11DB11D8093860290938702A0
:103B3000A0938802B0938902BF91AF919F918F911A
:103B40000F900FBE0F901F9018950E94D60CF894FE
:103B50002FEF87EA91E6215080409040E1F700C0C6
:103B6000000087E090EBDC018093A2029093A30217
:103B7000A093A402B093A5022CE088E190E00FB6D8
:103B8000F894A895809360000FBE20936000FFCF4B
:103B900020E1929FF0011124E80FF11DE551FF4F44
:103BA0009491892F8F7092959F700895CF93C82F0D
:103BB000CB010E94C81D482F50E080E1989F9001E2
:103BC0001124242B352B2038310519F480E090E0A6
:103BD00015C09770E92FF0E088E0C89FE00DF11D57
:103BE000112484E0EE0FFF1F8A95E1F7E40FF51F23
:103BF000EE0FFF1FE050F84985919491CF91089501
:103C000080E090E0089580918C0280FF0BC060916D
:103C1000110185E0689FB001112475956795759530
:103C200067952AC081FF09C06091110185E0689FF6
:103C3000B0011124759567951FC082FF07C0609180
:103C4000110185E0689FB001112416C040918D02DA
:103C50004423C9F060911001461788F720911101A3
:103C600085E0289F90011124429FC001439F900D41
:103C7000112470E00E94BF256038710540F4611581
:103C8000710539F002C065E070E0862F08958FE776
:103C9000089581E0089580918C0280FF08C06091B2
:103CA0000F0170E0759567957595679521C081FF47
:103CB00006C060910F0170E07595679519C082FF8D
:103CC00004C060910F0170E010C080918D028823C4
:103CD000C1F060910E018617A0F790910F01989F97
:103CE000C001112470E00E94BF256038710528F4DE
:103CF0006115710521F0862F08958FE7089581E001
:103D0000089561E070E0F4CF803F21F40E94031E2B
:103D1000819504C0813F29F40E94031E8093900284
:103D20000895823F21F40E94031E819504C0833FC1
:103D300029F40E94031E80938F020895893F19F48D
:103D40000E944B1E05C08A3F31F40E944B1E819594
:103D50008093910208958B3F21F40E944B1E819520
:103D600004C08C3F29F40E944B1E80939202089558
:103D7000843F21F480918E02816017C0853F21F439
:103D800080918E02826011C0863F21F480918E0264
:103D900084600BC0873F21F480918E02886005C04B
:103DA000883F31F480918E02806180938E02089565
:103DB0008D3F21F480918C0281600BC08E3F21F4F5
:103DC00080918C02826005C08F3F29F480918C0223
:103DD000846080938C020895803F39F48091900232
:103DE00087FF6CC01092900269C0813F29F48091D6
:103DF00090021816BCF362C090918F02823F29F4A2
:103E000097FF5CC010928F0259C0833F19F41916B6
:103E1000CCF354C0893F41F48091910218160CF004
:103E20004DC0109291024AC08A3F29F480919102BC
:103E300087FF44C0F6CF8B3F39F48091920287FF11
:103E40003DC0109292023AC08C3F29F480919202B8
:103E50001816BCF333C0843F21F480918E028E7F0C
:103E600017C0853F21F480918E028D7F11C0863F5F
:103E700021F480918E028B7F0BC0873F21F48091CB
:103E80008E02877F05C0883F31F480918E028F7E3D
:103E900080938E0213C08D3F21F480918C028E7F1F
:103EA0000BC08E3F21F480918C028D7F05C08F3F27
:103EB00029F480918C028B7F80938C0280918F02F9
:103EC00081110EC08091900281110AC080919102EF
:103ED000811106C080919202811102C010928D0260
:103EE00008958091840283FF7EC08EE694E00E9454
:103EF000990580918E021F928F9389E694E09F939B
:103F00008F930E94320687E694E00E9499052091E3
:103F10008F02822F992787FD90959F932F9384E698
:103F200094E09F938F930E94320682E694E00E9471
:103F3000990520919002822F992787FD90959F9354
:103F40002F938FE594E09F938F930E9432068DE527
:103F500094E00E94990520919102822F992787FD74
:103F600090959F932F938AE594E09F938F930E945F
:103F7000320688E594E00E94990520919202822FF2
:103F8000992787FD90959F932F9385E594E09F93C4
:103F90008F930E94320682E594E00E9499058091F9
:103FA0008D021F928F938FE494E09F938F930E94D2
:103FB00032068DE494E00E94990580918C021F9254
:103FC0008F938AE494E09F938F930E94320687E454
:103FD00094E00E9499058DB79EB74C960FB6F89461
:103FE0009EBF0FBE8DBF8EE892E00E9403100E941C
:103FF0003F1D90938B0280938A0208951F93CF9365
:10400000DF9380918A0290918B020E94571D40910C
:104010008D02442321F02091120130E006C020914E
:1040200013015AE0259F900111248217930708F489
:1040300082C080918F0210919002D0919102C09124
:104040009202811107C0111105C0D11103C0CC2308
:1040500009F471C04F3F19F04F5F40938D0218165D
:1040600024F40E94031E80938F0280918F0287FFA9
:1040700005C00E94031E819580938F02111624F4BF
:104080000E94031E809390028091900287FF05C0DA
:104090000E94031E81958093900260918F02662397
:1040A00039F110919002112319F1772767FD70956E
:1040B000872F972F0E94C42423E333E343E35FE376
:1040C0000E9428250E94912460938F02612F7727F8
:1040D00067FD7095872F972F0E94C42423E333E355
:1040E00043E35FE30E9428250E949124609390029D
:1040F0001D1624F40E944B1E809391028091910220
:1041000087FF05C00E944B1E8195809391021C166B
:1041100024F40E944B1E809392028091920287FFAA
:1041200005C00E944B1E819580939202DF91CF9132
:104130001F910C94711FDF91CF911F910895EEE8AC
:10414000F2E085E0DF011D928A95E9F710928D0279
:1041500010928C02089581E996E00E9499051F92C1
:1041600081E08F931F9285E08F9383E496E09F9385
:104170008F930E9432060F900F900F900F900F9028
:104180000F9008958330E9F128F4813061F0823096
:1041900009F10895853009F462C008F449C08630F9
:1041A00009F474C0089520911301862F90E0820FC6
:1041B000911D8F3F910520F4620F6093130103C09E
:1041C0008FEF80931301809113011F928F938CE7DF
:1041D00095E072C020911201862F90E0820F911D10
:1041E0008F3F910520F4620F6093120103C08FEF9F
:1041F00080931201809112011F928F938AE695E0BD
:104200005BC020911101862F90E0820F911D8F3F9E
:10421000910520F4620F6093110103C08FEF80932A
:104220001101809111011F928F9387E595E044C0A1
:1042300020911001862F90E0820F911D8F3F9105F4
:1042400020F4620F6093100103C08FEF8093100180
:10425000809110011F928F9382E495E02DC02091F0
:104260000F01862F90E0820F911D8F3F910520F462
:10427000620F60930F0103C08FEF80930F01809155
:104280000F011F928F9389E295E016C020910E01D5
:10429000862F90E0820F911D8F3F910520F4620FD1
:1042A00060930E0103C08FEF80930E0180910E0189
:1042B0001F928F938EE095E09F938F930E9432061A
:1042C0000F900F900F900F900895833081F128F494
:1042D000813059F08230D1F00895853009F449C019
:1042E000B8F1863009F456C008958091130168171B
:1042F00020F4861B8093130102C010921301809159
:1043000013011F928F938FEF94E054C0809112019C
:10431000681720F4861B8093120102C010921201CC
:10432000809112011F928F938DEE94E043C0809193
:104330001101681720F4861B8093110102C01092AE
:104340001101809111011F928F938AED94E032C088
:1043500080911001681720F4861B8093100102C021
:1043600010921001809110011F928F9385EC94E0C0
:1043700021C080910F01681720F4861B80930F01E4
:1043800002C010920F0180910F011F928F938CEA4F
:1043900094E010C080910E01681720F4861B809372
:1043A0000E0102C010920E0180910E011F928F9398
:1043B00081E994E09F938F930E9432060F900F90B3
:1043C0000F900F900895CF93C82F1F928F9326E9D7
:1043D00037E03F932F930E94320661E070E080E067
:1043E00090E004C0660F771F881F991FCA95D2F707
:1043F0000E94E1190F900F900F900F90CF910C94A5
:104400008E15CF938732A8F58E3108F028C1803100
:1044100009F49DC0F8F4873009F464C0A8F486302C
:1044200009F021C180918402817F8E7F8093840274
:104430008BE997E00E94990589E89AE00E94990526
:1044400081E0809394024CC08B30F1F18E3009F4FE
:104450006BC009C1863109F4ADC020F4813109F483
:10446000EAC001C1893109F48EC08B3109F449C019
:10447000FAC0883349F150F4893209F4EEC085332B
:1044800009F4EBC0873209F0EEC0E7C0833409F4C9
:10449000E4C028F48A3308F4E6C08953E1C08834C4
:1044A00009F0E1C00E948E1588E79AE00E94990504
:1044B0002FEF83ED90E3215080409040E1F700C062
:1044C00000000E94A51D0CC082EC97E059C08FE54A
:1044D0009AE00E9499058091840281608093840211
:1044E000C1E0C6C080918402C82FC17080FFEFCFA9
:1044F0008BE69AE00E94990580918402817F8E7FED
:104500003AC08091840281FBCC27C0F991E0C92791
:10451000C0FB81F980938402CC2319F082E59AE0F4
:1045200025C084E49AE02CC08091840282FBCC27D1
:10453000C0F991E0C927C0FB82F980938402CC23A3
:1045400019F085E39AE012C085E29AE019C08091E3
:10455000840283FBCC27C0F991E0C927C0FB83F913
:1045600080938402CC2351F089E19AE00E9499055E
:10457000809184028160809384027AC08CE09AE00A
:104580000E949905ADCF8DEF99E00E94990584EDC9
:1045900099E00E94990582E999E00E94990585E6D3
:1045A00099E00E9499058BE199E00E94990580EFBE
:1045B00098E0E6CF82EE98E00E9499050E94B20F43
:1045C0001F928F9388EC98E09F938F930E943206FE
:1045D00080910A011F928F9381EB98E09F938F93B4
:1045E0000E943206809187011F928F938EE998E096
:1045F0009F938F930E94320680910B011F928F939D
:104600008BE898E09F938F930E9432060E944B1D87
:104610009F938F937F936F9384E798E09F938F93FB
:104620000E9432068DB79EB746960FB6F8949EBF8D
:104630000FBE8DBF55CF0E948E15C0910B0181E03A
:10464000C827C0930B01CC2329F08AE698E00E948A
:1046500099050EC08FE598E093CF80E001C08D51A1
:104660000E94E3213DCF8DE598E00E949905C0E0CE
:104670008C2FCF91089580E0089580E00895CF9326
:10468000C82F80919402813071F020F0823009F4BB
:1046900048C03FC1A0910C01B0910D018C918232B4
:1046A00009F039C107C0A0910C01B0910D018C91A6
:1046B000823249F48C2F0E943B2381112FC08C2F12
:1046C0000E9401222CC08C2F0E943D23811126C004
:1046D000C431E1F070F4CB3081F0C031D1F40E94EC
:1046E000AB208EE897E00E94990582E080939402C7
:1046F00015C0C93259F0C83361F48BE997E00E94C4
:10470000990582E997E00E94990508C010929402E9
:1047100004C18CE897E00E949905FFC081E0817098
:10472000FEC0C43228F5CE3108F0C1C0CB30A1F1B3
:10473000D0F4C73009F0D3C08EE18093130182E337
:10474000809312018AE08093110184E1809310012B
:1047500088E080930F0188E280930E0182E396E067
:104760000E949905BFC0C33149F1C431C1F0B7C03F
:10477000CB3409F4A9C028F4C93289F0C83361F0F8
:10478000AEC0C13509F49EC0C23509F499C0CE341B
:1047900009F0A5C06AE09EC00E94AB20A3C0809132
:1047A0009302882319F0109293029CC08FE396E045
:1047B0000E94990581E080939402B1C089E196E05E
:1047C0000E94990587E096E00E9499058091130167
:1047D0001F928F9384E096E09F938F930E943206FE
:1047E00082E096E00E94990580EF95E00E9499058D
:1047F000809112011F928F938DEE95E09F938F937E
:104800000E9432068BEE95E00E9499058CED95E0B2
:104810000E949905809111011F928F9389ED95E077
:104820009F938F930E94320687ED95E00E94990531
:1048300086EC95E00E949905809110011F928F935C
:1048400083EC95E09F938F930E94320681EC95E074
:104850000E9499058CEA95E00E94990580910F01CC
:104860001F928F9389EA95E09F938F930E9432065F
:1048700087EA95E00E94990580E995E00E949905F4
:1048800080910E011F928F938DE895E09F938F93F7
:104890000E9432068BE895E00E9499058DB79EB77D
:1048A00048960FB6F8949EBF0FBE8DBF1BC0CE5169
:1048B000EC2FF0E0E25DFE4F80818093930212C006
:1048C00061E003C061E006C06AE0809193020E944B
:1048D000C22008C0809193020E94652103C080E33A
:1048E00096E013C080919302882369F01F928F9302
:1048F0008AE296E09F938F930E9432060F900F906A
:104900000F900F9004C087E296E00E94990581E025
:1049100006C01092940280E002C080E000CFCF91E8
:10492000089504D06894B1118DC0089570D088F0B6
:104930009F5790F0B92F9927B751A0F0D1F0660F8B
:10494000771F881F991F1AF0BA95C9F712C0B130A6
:1049500081F077D0B1E0089574C0672F782F882751
:10496000B85F39F0B93FCCF3869577956795B395E5
:10497000D9F73EF490958095709561957F4F8F4F54
:104980009F4F0895E89409C097FB3EF49095809559
:10499000709561957F4F8F4F9F4F9923A9F0F92F05
:1049A00096E9BB279395F695879577956795B79583
:1049B000F111F8CFFAF4BB0F11F460FF1BC06F5F69
:1049C0007F4F8F4F9F4F16C0882311F096E911C07B
:1049D000772321F09EE8872F762F05C0662371F09C
:1049E00096E8862F70E060E02AF09A95660F771FB0
:1049F000881FDAF7880F9695879597F9089557FDE0
:104A00009058440F551F59F05F3F71F04795880F3C
:104A100097FB991F61F09F3F79F0879508951216D3
:104A200013061406551FF2CF4695F1DF08C016167F
:104A300017061806991FF1CF869571056105089430
:104A40000895E894BB2766277727CB0197F9089547
:104A50000BD078C069D028F06ED018F0952309F0FB
:104A60005AC05FC01124EECFCADFA0F3959FD1F3E7
:104A7000950F50E0551F629FF001729FBB27F00D0C
:104A8000B11D639FAA27F00DB11DAA1F649F662761
:104A9000B00DA11D661F829F2227B00DA11D621FB0
:104AA000739FB00DA11D621F839FA00D611D221F6A
:104AB000749F3327A00D611D231F849F600D211D4E
:104AC000822F762F6A2F11249F5750408AF0E1F0F1
:104AD00088234AF0EE0FFF1FBB1F661F771F881F3A
:104AE00091505040A9F79E3F510570F014C0AACFD5
:104AF0005F3FECF3983EDCF3869577956795B79525
:104B0000F795E7959F5FC1F7FE2B880F911D96954E
:104B1000879597F9089597F99F6780E870E060E0BE
:104B200008959FEF80EC089500240A941616170646
:104B300018060906089500240A941216130614068E
:104B400005060895092E0394000C11F4882352F0F1
:104B5000BB0F40F4BF2B11F460FF04C06F5F7F4FA9
:104B60008F4F9F4F0895991B79E004C0991F9617A6
:104B700008F0961B881F7A95C9F78095089597FBD2
:104B8000072E16F4009407D077FD09D00E94D9258E
:104B900007FC05D03EF4909581959F4F0895709540
:104BA00061957F4F0895EE0FFF1F0590F491E02D62
:104BB0000994AA1BBB1B51E107C0AA1FBB1FA61764
:104BC000B70710F0A61BB70B881F991F5A95A9F7B6
:0E4BD00080959095BC01CD010895F894FFCF1B
:104BDE00FF07F008CD08990866080101620228084F
:104BEE00140A321E404D36223958030B03D502B338
:104BFE00027A02ED0106021F02380258020001027B
:084C0E00030405060708090074
:106800000000000000000000040005000600070072
:10681000080009000A000B000C000D000E000F001C
:1068200010001100120013001400150016001700CC
:10683000180019001A001B001C001D001E001F007C
:10684000200021002200230024002500260027002C
:10685000280000002A002B002CA32D002E002F0062
:1068600030003100000033003400290036003700CA
:106870003800E00000000000000000000000000000
:106880000000000000000000000000000000000008
:1068900000004900000000004C00000000004F0014
:1068A00050005100520000000000000000000000F5
:1068B00000000000000000000000000000000000D8
:1068C00000000000000000000000000000000000C8
:1068D00000000000000000000000000000000000B8
:1068E00000000000000000000000000000000000A8
:1068F000E00001F8E200E300E40003F8E600F1A3A1
:106900000000000000000000040005000600070071
:10691000080009000A000B000C000D000E000F001B
:1069200010001100120013001400150016001700CB
:10693000180019001A001B001C001D001E001F007B
:10694000200021002200230024002500260027002B
:10695000280000002A002B002CA42D002E002F0060
:1069600030003100000033003400350036003700BD
:106970003800E000000000000000000000000000FF
:106980000000000000000000000000000000000007
:1069900000004900000000004C00000000004F0013
:1069A00050005100520000000000000000000000F4
:1069B00000000000000000000000000000000000D7
:1069C00000000000000000000000000000000000C7
:1069D00000000000000000000000000000000000B7
:1069E00000000000000000000000000000000000A7
:1069F000E00000F8E200E300E40002F8E600F1A4A1
:106A00000000000000000000010001000100010082
:106A1000010001000100010001000100010001006E
:106A2000010001000100010001000100010001005E
:106A3000010001000100010001000100010001004E
:106A4000010001000100010001000100010001003E
:106A5000010000000100010001000100010001002F
:106A600001000100000001000100350001000100EB
:106A70000100010000000000000000000000000014
:106A80000000000000000000000000000000000006
:106A900000000100000000000100000000000100F3
:106AA00001000100010000000000000000000000E3
:106AB00000000000000000000000000000000000D6
:106AC00000000000000000000000000000000000C6
:106AD00000000000000000000000000000000000B6
:106AE00000000000000000000000000000000000A6
:106AF000010001000100010001000100010001008E
:106B00000000000000000000EA4401000100E2442F
:106B10000100010001000100460001004A004B0095
:106B20000100010047004800028A0100E944010019
:106B30000100010001000100010001003A003B00DA
:106B40003C003D003E003F00400041004200430049
:106B500001000000010039002CA3440045000100A1
:106B60000100010000000100010035004D004E0051
:106B70000100010000000000000000000000000013
:106B80000000000000000000000000000000000005
:106B900000000100000000000100000000004D00A6
:106BA0004A004E004B000000000000000000000002
:106BB00000000000000000000000000000000000D5
:106BC00000000000000000000000000000000000C5
:106BD00000000000000000000000000000000000B5
:106BE00000000000000000000000000000000000A5
:106BF0000100010001000100650001000100F1A396
:106C00000000000000000000EA4401000100E2442E
:106C10000100010001000100460001004A004B0094
:106C20000100010047004800028A0100E944010018
:106C30000100010001000100010001003A003B00D9
:106C40003C003D003E003F00400041004200430048
:106C500001000000010039002CA44400450001009F
:106C60000100010000000100010029004D004E005C
:106C70000100010000000000000000000000000012
:106C80000000000000000000000000000000000004
:106C900000000100000000000100000000004D00A5
:106CA0004A004E004B000000000000000000000001
:106CB00000000000000000000000000000000000D4
:106CC00000000000000000000000000000000000C4
:106CD00000000000000000000000000000000000B4
:106CE00000000000000000000000000000000000A4
:106CF0000100010001000100650001000100F1A494
:00000001FF
